{
  "address": "0x0a81A33000d1CF7C1bDe55fA452FB7281BF5C8D6",
  "abi": [
    {
      "inputs": [
        {
          "internalType": "address",
          "name": "vrfCoordinatorV2",
          "type": "address"
        },
        {
          "internalType": "uint64",
          "name": "subscriptionId",
          "type": "uint64"
        },
        {
          "internalType": "bytes32",
          "name": "gasLane",
          "type": "bytes32"
        },
        {
          "internalType": "uint256",
          "name": "interval",
          "type": "uint256"
        },
        {
          "internalType": "uint256",
          "name": "entranceFee",
          "type": "uint256"
        },
        {
          "internalType": "uint32",
          "name": "callbackGasLimit",
          "type": "uint32"
        }
      ],
      "stateMutability": "nonpayable",
      "type": "constructor"
    },
    {
      "inputs": [
        {
          "internalType": "address",
          "name": "have",
          "type": "address"
        },
        {
          "internalType": "address",
          "name": "want",
          "type": "address"
        }
      ],
      "name": "OnlyCoordinatorCanFulfill",
      "type": "error"
    },
    {
      "inputs": [],
      "name": "Raffle__IntervalTimeHasntPassed",
      "type": "error"
    },
    {
      "inputs": [],
      "name": "Raffle__InvalidInterval",
      "type": "error"
    },
    {
      "inputs": [],
      "name": "Raffle__RaffleNotOpen",
      "type": "error"
    },
    {
      "inputs": [],
      "name": "Raffle__SendMoreToEnterRaffle",
      "type": "error"
    },
    {
      "inputs": [],
      "name": "Raffle__TransferFailed",
      "type": "error"
    },
    {
      "inputs": [
        {
          "internalType": "uint256",
          "name": "currentBalance",
          "type": "uint256"
        },
        {
          "internalType": "uint256",
          "name": "numPlayers",
          "type": "uint256"
        },
        {
          "internalType": "uint256",
          "name": "raffleState",
          "type": "uint256"
        }
      ],
      "name": "Raffle__UpkeepNotNeeded",
      "type": "error"
    },
    {
      "inputs": [],
      "name": "Raffle__ValueMustBeGreaterThanZero",
      "type": "error"
    },
    {
      "anonymous": false,
      "inputs": [
        {
          "indexed": true,
          "internalType": "address",
          "name": "previousOwner",
          "type": "address"
        },
        {
          "indexed": true,
          "internalType": "address",
          "name": "newOwner",
          "type": "address"
        }
      ],
      "name": "OwnershipTransferred",
      "type": "event"
    },
    {
      "anonymous": false,
      "inputs": [
        {
          "indexed": true,
          "internalType": "address",
          "name": "player",
          "type": "address"
        }
      ],
      "name": "RaffleEnter",
      "type": "event"
    },
    {
      "anonymous": false,
      "inputs": [
        {
          "indexed": true,
          "internalType": "uint256",
          "name": "requestId",
          "type": "uint256"
        }
      ],
      "name": "RequestedRaffleWinner",
      "type": "event"
    },
    {
      "anonymous": false,
      "inputs": [
        {
          "indexed": true,
          "internalType": "address",
          "name": "player",
          "type": "address"
        }
      ],
      "name": "WinnerPicked",
      "type": "event"
    },
    {
      "inputs": [
        {
          "internalType": "uint256",
          "name": "_intervalInSeconds",
          "type": "uint256"
        }
      ],
      "name": "changeInterval",
      "outputs": [],
      "stateMutability": "nonpayable",
      "type": "function"
    },
    {
      "inputs": [
        {
          "internalType": "bytes",
          "name": "",
          "type": "bytes"
        }
      ],
      "name": "checkUpkeep",
      "outputs": [
        {
          "internalType": "bool",
          "name": "upkeepNeeded",
          "type": "bool"
        },
        {
          "internalType": "bytes",
          "name": "",
          "type": "bytes"
        }
      ],
      "stateMutability": "view",
      "type": "function"
    },
    {
      "inputs": [],
      "name": "enterRaffle",
      "outputs": [],
      "stateMutability": "payable",
      "type": "function"
    },
    {
      "inputs": [],
      "name": "getEntranceFee",
      "outputs": [
        {
          "internalType": "uint256",
          "name": "",
          "type": "uint256"
        }
      ],
      "stateMutability": "view",
      "type": "function"
    },
    {
      "inputs": [],
      "name": "getInterval",
      "outputs": [
        {
          "internalType": "uint256",
          "name": "",
          "type": "uint256"
        }
      ],
      "stateMutability": "view",
      "type": "function"
    },
    {
      "inputs": [],
      "name": "getLastTimeStamp",
      "outputs": [
        {
          "internalType": "uint256",
          "name": "",
          "type": "uint256"
        }
      ],
      "stateMutability": "view",
      "type": "function"
    },
    {
      "inputs": [],
      "name": "getNumWords",
      "outputs": [
        {
          "internalType": "uint256",
          "name": "",
          "type": "uint256"
        }
      ],
      "stateMutability": "pure",
      "type": "function"
    },
    {
      "inputs": [],
      "name": "getNumberOfPlayers",
      "outputs": [
        {
          "internalType": "uint256",
          "name": "",
          "type": "uint256"
        }
      ],
      "stateMutability": "view",
      "type": "function"
    },
    {
      "inputs": [
        {
          "internalType": "uint256",
          "name": "index",
          "type": "uint256"
        }
      ],
      "name": "getPlayer",
      "outputs": [
        {
          "internalType": "address",
          "name": "",
          "type": "address"
        }
      ],
      "stateMutability": "view",
      "type": "function"
    },
    {
      "inputs": [],
      "name": "getRaffleState",
      "outputs": [
        {
          "internalType": "enum Raffle.RaffleState",
          "name": "",
          "type": "uint8"
        }
      ],
      "stateMutability": "view",
      "type": "function"
    },
    {
      "inputs": [],
      "name": "getRecentWinner",
      "outputs": [
        {
          "internalType": "address",
          "name": "",
          "type": "address"
        }
      ],
      "stateMutability": "view",
      "type": "function"
    },
    {
      "inputs": [],
      "name": "getRequestConfirmations",
      "outputs": [
        {
          "internalType": "uint256",
          "name": "",
          "type": "uint256"
        }
      ],
      "stateMutability": "pure",
      "type": "function"
    },
    {
      "inputs": [],
      "name": "owner",
      "outputs": [
        {
          "internalType": "address",
          "name": "",
          "type": "address"
        }
      ],
      "stateMutability": "view",
      "type": "function"
    },
    {
      "inputs": [
        {
          "internalType": "bytes",
          "name": "",
          "type": "bytes"
        }
      ],
      "name": "performUpkeep",
      "outputs": [],
      "stateMutability": "nonpayable",
      "type": "function"
    },
    {
      "inputs": [
        {
          "internalType": "uint256",
          "name": "requestId",
          "type": "uint256"
        },
        {
          "internalType": "uint256[]",
          "name": "randomWords",
          "type": "uint256[]"
        }
      ],
      "name": "rawFulfillRandomWords",
      "outputs": [],
      "stateMutability": "nonpayable",
      "type": "function"
    },
    {
      "inputs": [],
      "name": "renounceOwnership",
      "outputs": [],
      "stateMutability": "nonpayable",
      "type": "function"
    },
    {
      "inputs": [
        {
          "internalType": "address",
          "name": "newOwner",
          "type": "address"
        }
      ],
      "name": "transferOwnership",
      "outputs": [],
      "stateMutability": "nonpayable",
      "type": "function"
    }
  ],
  "transactionHash": "0xdbf53efee0d18f017c27e06dcbc78a6eed2956486f0fceb72852192ca9bae95c",
  "args": [
    "0x8103B0A8A00be2DDC778e6e7eaa21791Cd364625",
    "6926",
    "0x474e34a077df58807dbe9c96d3c009b23b3c6d0cce433e59bbf5b34f823bc56c",
    "30",
    "10000000000000000",
    "500000"
  ],
  "numDeployments": 1,
  "solcInputHash": "457105ecbd5cb15c443499219fad22ff",
  "bytecode": "0x6101406040523480156200001257600080fd5b5060405162001e2a38038062001e2a83398181016040528101906200003891906200037e565b858073ffffffffffffffffffffffffffffffffffffffff1660808173ffffffffffffffffffffffffffffffffffffffff1681525050506200008e620000826200014c60201b60201c565b6200015460201b60201c565b8573ffffffffffffffffffffffffffffffffffffffff1660a08173ffffffffffffffffffffffffffffffffffffffff16815250508360e08181525050826001819055508467ffffffffffffffff1660c08167ffffffffffffffff16815250508161012081815250506000600560006101000a81548160ff021916908360018111156200011f576200011e6200041a565b5b0217905550426002819055508063ffffffff166101008163ffffffff168152505050505050505062000449565b600033905090565b60008060009054906101000a900473ffffffffffffffffffffffffffffffffffffffff169050816000806101000a81548173ffffffffffffffffffffffffffffffffffffffff021916908373ffffffffffffffffffffffffffffffffffffffff1602179055508173ffffffffffffffffffffffffffffffffffffffff168173ffffffffffffffffffffffffffffffffffffffff167f8be0079c531659141344cd1fd0a4f28419497f9722a3daafe3b4186f6b6457e060405160405180910390a35050565b600080fd5b600073ffffffffffffffffffffffffffffffffffffffff82169050919050565b60006200024a826200021d565b9050919050565b6200025c816200023d565b81146200026857600080fd5b50565b6000815190506200027c8162000251565b92915050565b600067ffffffffffffffff82169050919050565b620002a18162000282565b8114620002ad57600080fd5b50565b600081519050620002c18162000296565b92915050565b6000819050919050565b620002dc81620002c7565b8114620002e857600080fd5b50565b600081519050620002fc81620002d1565b92915050565b6000819050919050565b620003178162000302565b81146200032357600080fd5b50565b60008151905062000337816200030c565b92915050565b600063ffffffff82169050919050565b62000358816200033d565b81146200036457600080fd5b50565b60008151905062000378816200034d565b92915050565b60008060008060008060c087890312156200039e576200039d62000218565b5b6000620003ae89828a016200026b565b9650506020620003c189828a01620002b0565b9550506040620003d489828a01620002eb565b9450506060620003e789828a0162000326565b9350506080620003fa89828a0162000326565b92505060a06200040d89828a0162000367565b9150509295509295509295565b7f4e487b7100000000000000000000000000000000000000000000000000000000600052602160045260246000fd5b60805160a05160c05160e0516101005161012051611983620004a7600039600081816103ca01526104c70152600061076c0152600061072801526000610749015260006106ec015260008181610407015261045b01526119836000f3fe6080604052600436106100fe5760003560e01c806363c756071161009557806391ad27b41161006457806391ad27b4146102df578063c1c244e81461030a578063e55ae4e814610335578063f2fde38b14610372578063fd6673f51461039b576100fe565b806363c75607146102365780636e04ff0d1461025f578063715018a61461029d5780638da5cb5b146102b4576100fe565b80634585e33b116100d15780634585e33b1461018c578063473f1ddc146101b557806353a2c19a146101e05780635f1b0fd81461020b576100fe565b806309bc33a714610103578063115cbaf51461012e5780631fe543e3146101595780632cfcc53914610182575b600080fd5b34801561010f57600080fd5b506101186103c6565b6040516101259190610f71565b60405180910390f35b34801561013a57600080fd5b506101436103ee565b6040516101509190611003565b60405180910390f35b34801561016557600080fd5b50610180600480360381019061017b91906111b7565b610405565b005b61018a6104c5565b005b34801561019857600080fd5b506101b360048036038101906101ae919061126e565b610634565b005b3480156101c157600080fd5b506101ca610825565b6040516101d791906112fc565b60405180910390f35b3480156101ec57600080fd5b506101f561084f565b6040516102029190610f71565b60405180910390f35b34801561021757600080fd5b5061022061085e565b60405161022d9190610f71565b60405180910390f35b34801561024257600080fd5b5061025d60048036038101906102589190611317565b61086b565b005b34801561026b57600080fd5b50610286600480360381019061028191906113f9565b610941565b6040516102949291906114dc565b60405180910390f35b3480156102a957600080fd5b506102b2610a0b565b005b3480156102c057600080fd5b506102c9610a1f565b6040516102d691906112fc565b60405180910390f35b3480156102eb57600080fd5b506102f4610a48565b6040516103019190610f71565b60405180910390f35b34801561031657600080fd5b5061031f610a52565b60405161032c9190610f71565b60405180910390f35b34801561034157600080fd5b5061035c60048036038101906103579190611317565b610a5c565b60405161036991906112fc565b60405180910390f35b34801561037e57600080fd5b5061039960048036038101906103949190611538565b610aa4565b005b3480156103a757600080fd5b506103b0610b27565b6040516103bd9190610f71565b60405180910390f35b60007f0000000000000000000000000000000000000000000000000000000000000000905090565b6000600560009054906101000a900460ff16905090565b7f000000000000000000000000000000000000000000000000000000000000000073ffffffffffffffffffffffffffffffffffffffff163373ffffffffffffffffffffffffffffffffffffffff16146104b757337f00000000000000000000000000000000000000000000000000000000000000006040517f1cf993f40000000000000000000000000000000000000000000000000000000081526004016104ae929190611565565b60405180910390fd5b6104c18282610b34565b5050565b7f000000000000000000000000000000000000000000000000000000000000000034101561051f576040517f3038c00a00000000000000000000000000000000000000000000000000000000815260040160405180910390fd5b6000600181111561053357610532610f8c565b5b600560009054906101000a900460ff16600181111561055557610554610f8c565b5b1461058c576040517fd24a271400000000000000000000000000000000000000000000000000000000815260040160405180910390fd5b6004339080600181540180825580915050600190039060005260206000200160009091909190916101000a81548173ffffffffffffffffffffffffffffffffffffffff021916908373ffffffffffffffffffffffffffffffffffffffff1602179055503373ffffffffffffffffffffffffffffffffffffffff167f0805e1d667bddb8a95f0f09880cf94f403fb596ce79928d9f29b74203ba284d460405160405180910390a2565b600061064e60405180602001604052806000815250610941565b509050806106bd5747600480549050600560009054906101000a900460ff16600181111561067f5761067e610f8c565b5b6040517f584327aa0000000000000000000000000000000000000000000000000000000081526004016106b49392919061158e565b60405180910390fd5b6001600560006101000a81548160ff021916908360018111156106e3576106e2610f8c565b5b021790555060007f000000000000000000000000000000000000000000000000000000000000000073ffffffffffffffffffffffffffffffffffffffff16635d3b1d307f00000000000000000000000000000000000000000000000000000000000000007f000000000000000000000000000000000000000000000000000000000000000060037f000000000000000000000000000000000000000000000000000000000000000060016040518663ffffffff1660e01b81526004016107ad95949392919061163d565b6020604051808303816000875af11580156107cc573d6000803e3d6000fd5b505050506040513d601f19601f820116820180604052508101906107f091906116a5565b9050807fcd6e45c8998311cab7e9d4385596cac867e20a0587194b954fa3a731c93ce78b60405160405180910390a250505050565b6000600360009054906101000a900473ffffffffffffffffffffffffffffffffffffffff16905090565b6000600163ffffffff16905090565b6000600361ffff16905090565b610873610d67565b42426001546108829190611701565b106108b9576040517f23a105cd00000000000000000000000000000000000000000000000000000000815260040160405180910390fd5b600081116108f3576040517f5de6dd2300000000000000000000000000000000000000000000000000000000815260040160405180910390fd5b4242826109009190611701565b11610937576040517fda10e9f900000000000000000000000000000000000000000000000000000000815260040160405180910390fd5b8060018190555050565b600060606000600560009054906101000a900460ff16600181111561096957610968610f8c565b5b6000600181111561097d5761097c610f8c565b5b1490506000600154600254426109939190611735565b119050600080600480549050119050600080471190508280156109b35750835b80156109bc5750805b80156109c55750815b9550856040518060400160405280600381526020017f30783000000000000000000000000000000000000000000000000000000000008152509550955050505050915091565b610a13610d67565b610a1d6000610de5565b565b60008060009054906101000a900473ffffffffffffffffffffffffffffffffffffffff16905090565b6000600154905090565b6000600254905090565b600060048281548110610a7257610a71611769565b5b9060005260206000200160009054906101000a900473ffffffffffffffffffffffffffffffffffffffff169050919050565b610aac610d67565b600073ffffffffffffffffffffffffffffffffffffffff168173ffffffffffffffffffffffffffffffffffffffff1603610b1b576040517f08c379a0000000000000000000000000000000000000000000000000000000008152600401610b129061181b565b60405180910390fd5b610b2481610de5565b50565b6000600480549050905090565b600060048054905082600081518110610b5057610b4f611769565b5b6020026020010151610b62919061186a565b9050600060048281548110610b7a57610b79611769565b5b9060005260206000200160009054906101000a900473ffffffffffffffffffffffffffffffffffffffff16905080600360006101000a81548173ffffffffffffffffffffffffffffffffffffffff021916908373ffffffffffffffffffffffffffffffffffffffff160217905550600067ffffffffffffffff811115610c0357610c02611074565b5b604051908082528060200260200182016040528015610c315781602001602082028036833780820191505090505b5060049080519060200190610c47929190610eb1565b506000600560006101000a81548160ff02191690836001811115610c6e57610c6d610f8c565b5b02179055504260028190555060008173ffffffffffffffffffffffffffffffffffffffff1647604051610ca0906118cc565b60006040518083038185875af1925050503d8060008114610cdd576040519150601f19603f3d011682016040523d82523d6000602084013e610ce2565b606091505b5050905080610d1d576040517fa1d04b3900000000000000000000000000000000000000000000000000000000815260040160405180910390fd5b8173ffffffffffffffffffffffffffffffffffffffff167f5b690ec4a06fe979403046eaeea5b3ce38524683c3001f662c8b5a829632f7df60405160405180910390a25050505050565b610d6f610ea9565b73ffffffffffffffffffffffffffffffffffffffff16610d8d610a1f565b73ffffffffffffffffffffffffffffffffffffffff1614610de3576040517f08c379a0000000000000000000000000000000000000000000000000000000008152600401610dda9061192d565b60405180910390fd5b565b60008060009054906101000a900473ffffffffffffffffffffffffffffffffffffffff169050816000806101000a81548173ffffffffffffffffffffffffffffffffffffffff021916908373ffffffffffffffffffffffffffffffffffffffff1602179055508173ffffffffffffffffffffffffffffffffffffffff168173ffffffffffffffffffffffffffffffffffffffff167f8be0079c531659141344cd1fd0a4f28419497f9722a3daafe3b4186f6b6457e060405160405180910390a35050565b600033905090565b828054828255906000526020600020908101928215610f2a579160200282015b82811115610f295782518260006101000a81548173ffffffffffffffffffffffffffffffffffffffff021916908373ffffffffffffffffffffffffffffffffffffffff16021790555091602001919060010190610ed1565b5b509050610f379190610f3b565b5090565b5b80821115610f54576000816000905550600101610f3c565b5090565b6000819050919050565b610f6b81610f58565b82525050565b6000602082019050610f866000830184610f62565b92915050565b7f4e487b7100000000000000000000000000000000000000000000000000000000600052602160045260246000fd5b60028110610fcc57610fcb610f8c565b5b50565b6000819050610fdd82610fbb565b919050565b6000610fed82610fcf565b9050919050565b610ffd81610fe2565b82525050565b60006020820190506110186000830184610ff4565b92915050565b6000604051905090565b600080fd5b600080fd5b61103b81610f58565b811461104657600080fd5b50565b60008135905061105881611032565b92915050565b600080fd5b6000601f19601f8301169050919050565b7f4e487b7100000000000000000000000000000000000000000000000000000000600052604160045260246000fd5b6110ac82611063565b810181811067ffffffffffffffff821117156110cb576110ca611074565b5b80604052505050565b60006110de61101e565b90506110ea82826110a3565b919050565b600067ffffffffffffffff82111561110a57611109611074565b5b602082029050602081019050919050565b600080fd5b600061113361112e846110ef565b6110d4565b905080838252602082019050602084028301858111156111565761115561111b565b5b835b8181101561117f578061116b8882611049565b845260208401935050602081019050611158565b5050509392505050565b600082601f83011261119e5761119d61105e565b5b81356111ae848260208601611120565b91505092915050565b600080604083850312156111ce576111cd611028565b5b60006111dc85828601611049565b925050602083013567ffffffffffffffff8111156111fd576111fc61102d565b5b61120985828601611189565b9150509250929050565b600080fd5b60008083601f84011261122e5761122d61105e565b5b8235905067ffffffffffffffff81111561124b5761124a611213565b5b6020830191508360018202830111156112675761126661111b565b5b9250929050565b6000806020838503121561128557611284611028565b5b600083013567ffffffffffffffff8111156112a3576112a261102d565b5b6112af85828601611218565b92509250509250929050565b600073ffffffffffffffffffffffffffffffffffffffff82169050919050565b60006112e6826112bb565b9050919050565b6112f6816112db565b82525050565b600060208201905061131160008301846112ed565b92915050565b60006020828403121561132d5761132c611028565b5b600061133b84828501611049565b91505092915050565b600080fd5b600067ffffffffffffffff82111561136457611363611074565b5b61136d82611063565b9050602081019050919050565b82818337600083830152505050565b600061139c61139784611349565b6110d4565b9050828152602081018484840111156113b8576113b7611344565b5b6113c384828561137a565b509392505050565b600082601f8301126113e0576113df61105e565b5b81356113f0848260208601611389565b91505092915050565b60006020828403121561140f5761140e611028565b5b600082013567ffffffffffffffff81111561142d5761142c61102d565b5b611439848285016113cb565b91505092915050565b60008115159050919050565b61145781611442565b82525050565b600081519050919050565b600082825260208201905092915050565b60005b8381101561149757808201518184015260208101905061147c565b60008484015250505050565b60006114ae8261145d565b6114b88185611468565b93506114c8818560208601611479565b6114d181611063565b840191505092915050565b60006040820190506114f1600083018561144e565b818103602083015261150381846114a3565b90509392505050565b611515816112db565b811461152057600080fd5b50565b6000813590506115328161150c565b92915050565b60006020828403121561154e5761154d611028565b5b600061155c84828501611523565b91505092915050565b600060408201905061157a60008301856112ed565b61158760208301846112ed565b9392505050565b60006060820190506115a36000830186610f62565b6115b06020830185610f62565b6115bd6040830184610f62565b949350505050565b6000819050919050565b6115d8816115c5565b82525050565b600067ffffffffffffffff82169050919050565b6115fb816115de565b82525050565b600061ffff82169050919050565b61161881611601565b82525050565b600063ffffffff82169050919050565b6116378161161e565b82525050565b600060a08201905061165260008301886115cf565b61165f60208301876115f2565b61166c604083018661160f565b611679606083018561162e565b611686608083018461162e565b9695505050505050565b60008151905061169f81611032565b92915050565b6000602082840312156116bb576116ba611028565b5b60006116c984828501611690565b91505092915050565b7f4e487b7100000000000000000000000000000000000000000000000000000000600052601160045260246000fd5b600061170c82610f58565b915061171783610f58565b925082820190508082111561172f5761172e6116d2565b5b92915050565b600061174082610f58565b915061174b83610f58565b9250828203905081811115611763576117626116d2565b5b92915050565b7f4e487b7100000000000000000000000000000000000000000000000000000000600052603260045260246000fd5b600082825260208201905092915050565b7f4f776e61626c653a206e6577206f776e657220697320746865207a65726f206160008201527f6464726573730000000000000000000000000000000000000000000000000000602082015250565b6000611805602683611798565b9150611810826117a9565b604082019050919050565b60006020820190508181036000830152611834816117f8565b9050919050565b7f4e487b7100000000000000000000000000000000000000000000000000000000600052601260045260246000fd5b600061187582610f58565b915061188083610f58565b9250826118905761188f61183b565b5b828206905092915050565b600081905092915050565b50565b60006118b660008361189b565b91506118c1826118a6565b600082019050919050565b60006118d7826118a9565b9150819050919050565b7f4f776e61626c653a2063616c6c6572206973206e6f7420746865206f776e6572600082015250565b6000611917602083611798565b9150611922826118e1565b602082019050919050565b600060208201905081810360008301526119468161190a565b905091905056fea26469706673582212206a8042853ed9552c097628267a94f190ee5dfe1613fc22a217c5d3d2aa1a0f8564736f6c63430008130033",
  "devdoc": {
    "kind": "dev",
    "methods": {
      "owner()": {
        "details": "Returns the address of the current owner."
      },
      "renounceOwnership()": {
        "details": "Leaves the contract without owner. It will not be possible to call `onlyOwner` functions. Can only be called by the current owner. NOTE: Renouncing ownership will leave the contract without an owner, thereby disabling any functionality that is only available to the owner."
      },
      "transferOwnership(address)": {
        "details": "Transfers ownership of the contract to a new account (`newOwner`). Can only be called by the current owner."
      }
    },
    "version": 1
  },
  "userdoc": {
    "kind": "user",
    "methods": {},
    "version": 1
  },
  "storageLayout": {
    "storage": [
      {
        "astId": 180,
        "contract": "contracts/Raffle/Raffle.sol:Raffle",
        "label": "_owner",
        "offset": 0,
        "slot": "0",
        "type": "t_address"
      },
      {
        "astId": 373,
        "contract": "contracts/Raffle/Raffle.sol:Raffle",
        "label": "s_interval",
        "offset": 0,
        "slot": "1",
        "type": "t_uint256"
      },
      {
        "astId": 377,
        "contract": "contracts/Raffle/Raffle.sol:Raffle",
        "label": "s_lastTimeStamp",
        "offset": 0,
        "slot": "2",
        "type": "t_uint256"
      },
      {
        "astId": 379,
        "contract": "contracts/Raffle/Raffle.sol:Raffle",
        "label": "s_recentWinner",
        "offset": 0,
        "slot": "3",
        "type": "t_address"
      },
      {
        "astId": 382,
        "contract": "contracts/Raffle/Raffle.sol:Raffle",
        "label": "s_players",
        "offset": 0,
        "slot": "4",
        "type": "t_array(t_address_payable)dyn_storage"
      },
      {
        "astId": 385,
        "contract": "contracts/Raffle/Raffle.sol:Raffle",
        "label": "s_raffleState",
        "offset": 0,
        "slot": "5",
        "type": "t_enum(RaffleState)356"
      }
    ],
    "types": {
      "t_address": {
        "encoding": "inplace",
        "label": "address",
        "numberOfBytes": "20"
      },
      "t_address_payable": {
        "encoding": "inplace",
        "label": "address payable",
        "numberOfBytes": "20"
      },
      "t_array(t_address_payable)dyn_storage": {
        "base": "t_address_payable",
        "encoding": "dynamic_array",
        "label": "address payable[]",
        "numberOfBytes": "32"
      },
      "t_enum(RaffleState)356": {
        "encoding": "inplace",
        "label": "enum Raffle.RaffleState",
        "numberOfBytes": "1"
      },
      "t_uint256": {
        "encoding": "inplace",
        "label": "uint256",
        "numberOfBytes": "32"
      }
    }
  }
}